{
  "contractName": "CarbonCredits",
  "abi": [
    {
      "anonymous": false,
      "inputs": [
        {
          "indexed": true,
          "internalType": "address",
          "name": "buyer",
          "type": "address"
        },
        {
          "indexed": false,
          "internalType": "uint256",
          "name": "amount",
          "type": "uint256"
        },
        {
          "indexed": false,
          "internalType": "uint256",
          "name": "cost",
          "type": "uint256"
        }
      ],
      "name": "CreditsBought",
      "type": "event"
    },
    {
      "anonymous": false,
      "inputs": [
        {
          "indexed": true,
          "internalType": "address",
          "name": "supplier",
          "type": "address"
        },
        {
          "indexed": false,
          "internalType": "uint256",
          "name": "amount",
          "type": "uint256"
        }
      ],
      "name": "CreditsMinted",
      "type": "event"
    },
    {
      "anonymous": false,
      "inputs": [
        {
          "indexed": true,
          "internalType": "address",
          "name": "seller",
          "type": "address"
        },
        {
          "indexed": false,
          "internalType": "address",
          "name": "buyer",
          "type": "address"
        },
        {
          "indexed": false,
          "internalType": "uint256",
          "name": "amount",
          "type": "uint256"
        },
        {
          "indexed": false,
          "internalType": "uint256",
          "name": "revenue",
          "type": "uint256"
        }
      ],
      "name": "CreditsSold",
      "type": "event"
    },
    {
      "anonymous": false,
      "inputs": [
        {
          "indexed": true,
          "internalType": "address",
          "name": "supplier",
          "type": "address"
        },
        {
          "indexed": false,
          "internalType": "string",
          "name": "projectName",
          "type": "string"
        },
        {
          "indexed": false,
          "internalType": "string",
          "name": "reportIPFSLink",
          "type": "string"
        },
        {
          "indexed": false,
          "internalType": "uint256",
          "name": "creditAmount",
          "type": "uint256"
        }
      ],
      "name": "ProjectSubmitted",
      "type": "event"
    },
    {
      "anonymous": false,
      "inputs": [
        {
          "indexed": true,
          "internalType": "address",
          "name": "user",
          "type": "address"
        },
        {
          "indexed": false,
          "internalType": "enum UserRegistry.Role",
          "name": "role",
          "type": "uint8"
        },
        {
          "indexed": false,
          "internalType": "bytes32",
          "name": "nftHash",
          "type": "bytes32"
        }
      ],
      "name": "UserSignedUp",
      "type": "event"
    },
    {
      "inputs": [],
      "name": "TOKEN_PRICE",
      "outputs": [
        {
          "internalType": "uint256",
          "name": "",
          "type": "uint256"
        }
      ],
      "stateMutability": "view",
      "type": "function",
      "constant": true
    },
    {
      "inputs": [],
      "name": "TOTAL_SUPPLY",
      "outputs": [
        {
          "internalType": "uint256",
          "name": "",
          "type": "uint256"
        }
      ],
      "stateMutability": "view",
      "type": "function",
      "constant": true
    },
    {
      "inputs": [
        {
          "internalType": "address",
          "name": "",
          "type": "address"
        }
      ],
      "name": "balances",
      "outputs": [
        {
          "internalType": "uint256",
          "name": "",
          "type": "uint256"
        }
      ],
      "stateMutability": "view",
      "type": "function",
      "constant": true
    },
    {
      "inputs": [],
      "name": "login",
      "outputs": [
        {
          "internalType": "string",
          "name": "name",
          "type": "string"
        },
        {
          "internalType": "enum UserRegistry.Role",
          "name": "role",
          "type": "uint8"
        },
        {
          "internalType": "bytes32",
          "name": "nftHash",
          "type": "bytes32"
        }
      ],
      "stateMutability": "view",
      "type": "function",
      "constant": true
    },
    {
      "inputs": [
        {
          "internalType": "address",
          "name": "",
          "type": "address"
        },
        {
          "internalType": "uint256",
          "name": "",
          "type": "uint256"
        }
      ],
      "name": "projectReports",
      "outputs": [
        {
          "internalType": "string",
          "name": "projectName",
          "type": "string"
        },
        {
          "internalType": "string",
          "name": "companyPhone",
          "type": "string"
        },
        {
          "internalType": "string",
          "name": "geographicLocation",
          "type": "string"
        },
        {
          "internalType": "string",
          "name": "reportIPFSLink",
          "type": "string"
        },
        {
          "internalType": "uint256",
          "name": "creditAmount",
          "type": "uint256"
        },
        {
          "internalType": "uint256",
          "name": "timestamp",
          "type": "uint256"
        },
        {
          "internalType": "enum CarbonCredits.ReportStatus",
          "name": "status",
          "type": "uint8"
        },
        {
          "internalType": "address",
          "name": "supplier",
          "type": "address"
        },
        {
          "internalType": "uint256",
          "name": "id",
          "type": "uint256"
        }
      ],
      "stateMutability": "view",
      "type": "function",
      "constant": true
    },
    {
      "inputs": [
        {
          "internalType": "string",
          "name": "_name",
          "type": "string"
        },
        {
          "internalType": "string",
          "name": "_email",
          "type": "string"
        },
        {
          "internalType": "enum UserRegistry.Role",
          "name": "_role",
          "type": "uint8"
        }
      ],
      "name": "signup",
      "outputs": [],
      "stateMutability": "nonpayable",
      "type": "function"
    },
    {
      "inputs": [
        {
          "internalType": "uint256",
          "name": "",
          "type": "uint256"
        }
      ],
      "name": "supplierAddresses",
      "outputs": [
        {
          "internalType": "address",
          "name": "",
          "type": "address"
        }
      ],
      "stateMutability": "view",
      "type": "function",
      "constant": true
    },
    {
      "inputs": [],
      "name": "totalMinted",
      "outputs": [
        {
          "internalType": "uint256",
          "name": "",
          "type": "uint256"
        }
      ],
      "stateMutability": "view",
      "type": "function",
      "constant": true
    },
    {
      "inputs": [],
      "name": "totalUsers",
      "outputs": [
        {
          "internalType": "uint256",
          "name": "",
          "type": "uint256"
        }
      ],
      "stateMutability": "view",
      "type": "function",
      "constant": true
    },
    {
      "inputs": [
        {
          "internalType": "address",
          "name": "",
          "type": "address"
        }
      ],
      "name": "users",
      "outputs": [
        {
          "internalType": "string",
          "name": "name",
          "type": "string"
        },
        {
          "internalType": "string",
          "name": "email",
          "type": "string"
        },
        {
          "internalType": "enum UserRegistry.Role",
          "name": "role",
          "type": "uint8"
        },
        {
          "internalType": "bytes32",
          "name": "nftHash",
          "type": "bytes32"
        },
        {
          "internalType": "bool",
          "name": "registered",
          "type": "bool"
        }
      ],
      "stateMutability": "view",
      "type": "function",
      "constant": true
    },
    {
      "inputs": [],
      "name": "getBalance",
      "outputs": [
        {
          "internalType": "uint256",
          "name": "",
          "type": "uint256"
        }
      ],
      "stateMutability": "view",
      "type": "function",
      "constant": true
    },
    {
      "inputs": [
        {
          "internalType": "uint256",
          "name": "amount",
          "type": "uint256"
        },
        {
          "internalType": "address",
          "name": "recipient",
          "type": "address"
        }
      ],
      "name": "transferBalance",
      "outputs": [
        {
          "internalType": "uint256",
          "name": "",
          "type": "uint256"
        }
      ],
      "stateMutability": "nonpayable",
      "type": "function"
    },
    {
      "inputs": [
        {
          "internalType": "uint256",
          "name": "amount",
          "type": "uint256"
        },
        {
          "internalType": "address",
          "name": "_supplier",
          "type": "address"
        }
      ],
      "name": "buyCredits",
      "outputs": [],
      "stateMutability": "payable",
      "type": "function",
      "payable": true
    },
    {
      "inputs": [
        {
          "internalType": "address",
          "name": "buyer",
          "type": "address"
        },
        {
          "internalType": "uint256",
          "name": "amount",
          "type": "uint256"
        }
      ],
      "name": "sellCredits",
      "outputs": [],
      "stateMutability": "nonpayable",
      "type": "function"
    },
    {
      "inputs": [
        {
          "internalType": "string",
          "name": "_projectName",
          "type": "string"
        },
        {
          "internalType": "string",
          "name": "_companyPhone",
          "type": "string"
        },
        {
          "internalType": "string",
          "name": "_geographicLocation",
          "type": "string"
        },
        {
          "internalType": "string",
          "name": "_reportIPFSLink",
          "type": "string"
        },
        {
          "internalType": "uint256",
          "name": "_creditAmount",
          "type": "uint256"
        }
      ],
      "name": "submitReport",
      "outputs": [],
      "stateMutability": "payable",
      "type": "function",
      "payable": true
    },
    {
      "inputs": [],
      "name": "getSupplierReports",
      "outputs": [
        {
          "components": [
            {
              "internalType": "string",
              "name": "projectName",
              "type": "string"
            },
            {
              "internalType": "string",
              "name": "companyPhone",
              "type": "string"
            },
            {
              "internalType": "string",
              "name": "geographicLocation",
              "type": "string"
            },
            {
              "internalType": "string",
              "name": "reportIPFSLink",
              "type": "string"
            },
            {
              "internalType": "uint256",
              "name": "creditAmount",
              "type": "uint256"
            },
            {
              "internalType": "uint256",
              "name": "timestamp",
              "type": "uint256"
            },
            {
              "internalType": "enum CarbonCredits.ReportStatus",
              "name": "status",
              "type": "uint8"
            },
            {
              "internalType": "address",
              "name": "supplier",
              "type": "address"
            },
            {
              "internalType": "uint256",
              "name": "id",
              "type": "uint256"
            }
          ],
          "internalType": "struct CarbonCredits.ProjectReport[]",
          "name": "",
          "type": "tuple[]"
        }
      ],
      "stateMutability": "view",
      "type": "function",
      "constant": true
    },
    {
      "inputs": [],
      "name": "viewPendingReportsForAuditor",
      "outputs": [
        {
          "components": [
            {
              "internalType": "string",
              "name": "projectName",
              "type": "string"
            },
            {
              "internalType": "string",
              "name": "companyPhone",
              "type": "string"
            },
            {
              "internalType": "string",
              "name": "geographicLocation",
              "type": "string"
            },
            {
              "internalType": "string",
              "name": "reportIPFSLink",
              "type": "string"
            },
            {
              "internalType": "uint256",
              "name": "creditAmount",
              "type": "uint256"
            },
            {
              "internalType": "uint256",
              "name": "timestamp",
              "type": "uint256"
            },
            {
              "internalType": "enum CarbonCredits.ReportStatus",
              "name": "status",
              "type": "uint8"
            },
            {
              "internalType": "address",
              "name": "supplier",
              "type": "address"
            },
            {
              "internalType": "uint256",
              "name": "id",
              "type": "uint256"
            }
          ],
          "internalType": "struct CarbonCredits.ProjectReport[]",
          "name": "",
          "type": "tuple[]"
        }
      ],
      "stateMutability": "view",
      "type": "function",
      "constant": true
    },
    {
      "inputs": [],
      "name": "viewPendingReportsForRegulator",
      "outputs": [
        {
          "components": [
            {
              "internalType": "string",
              "name": "projectName",
              "type": "string"
            },
            {
              "internalType": "string",
              "name": "companyPhone",
              "type": "string"
            },
            {
              "internalType": "string",
              "name": "geographicLocation",
              "type": "string"
            },
            {
              "internalType": "string",
              "name": "reportIPFSLink",
              "type": "string"
            },
            {
              "internalType": "uint256",
              "name": "creditAmount",
              "type": "uint256"
            },
            {
              "internalType": "uint256",
              "name": "timestamp",
              "type": "uint256"
            },
            {
              "internalType": "enum CarbonCredits.ReportStatus",
              "name": "status",
              "type": "uint8"
            },
            {
              "internalType": "address",
              "name": "supplier",
              "type": "address"
            },
            {
              "internalType": "uint256",
              "name": "id",
              "type": "uint256"
            }
          ],
          "internalType": "struct CarbonCredits.ProjectReport[]",
          "name": "",
          "type": "tuple[]"
        }
      ],
      "stateMutability": "view",
      "type": "function",
      "constant": true
    },
    {
      "inputs": [
        {
          "internalType": "address",
          "name": "supplier",
          "type": "address"
        },
        {
          "internalType": "uint256",
          "name": "reportIndex",
          "type": "uint256"
        }
      ],
      "name": "approveReportByAuditor",
      "outputs": [],
      "stateMutability": "nonpayable",
      "type": "function"
    },
    {
      "inputs": [
        {
          "internalType": "address",
          "name": "supplier",
          "type": "address"
        },
        {
          "internalType": "uint256",
          "name": "reportIndex",
          "type": "uint256"
        }
      ],
      "name": "rejectReportByAuditor",
      "outputs": [],
      "stateMutability": "nonpayable",
      "type": "function"
    },
    {
      "inputs": [
        {
          "internalType": "address",
          "name": "supplier",
          "type": "address"
        },
        {
          "internalType": "uint256",
          "name": "reportIndex",
          "type": "uint256"
        }
      ],
      "name": "mintCredits",
      "outputs": [],
      "stateMutability": "nonpayable",
      "type": "function"
    },
    {
      "inputs": [
        {
          "internalType": "uint256",
          "name": "reportIndex",
          "type": "uint256"
        }
      ],
      "name": "supplierGetTokens",
      "outputs": [],
      "stateMutability": "payable",
      "type": "function",
      "payable": true
    },
    {
      "inputs": [],
      "name": "getApprovedReportsForSupplier",
      "outputs": [
        {
          "components": [
            {
              "internalType": "string",
              "name": "projectName",
              "type": "string"
            },
            {
              "internalType": "string",
              "name": "companyPhone",
              "type": "string"
            },
            {
              "internalType": "string",
              "name": "geographicLocation",
              "type": "string"
            },
            {
              "internalType": "string",
              "name": "reportIPFSLink",
              "type": "string"
            },
            {
              "internalType": "uint256",
              "name": "creditAmount",
              "type": "uint256"
            },
            {
              "internalType": "uint256",
              "name": "timestamp",
              "type": "uint256"
            },
            {
              "internalType": "enum CarbonCredits.ReportStatus",
              "name": "status",
              "type": "uint8"
            },
            {
              "internalType": "address",
              "name": "supplier",
              "type": "address"
            },
            {
              "internalType": "uint256",
              "name": "id",
              "type": "uint256"
            }
          ],
          "internalType": "struct CarbonCredits.ProjectReport[]",
          "name": "",
          "type": "tuple[]"
        }
      ],
      "stateMutability": "view",
      "type": "function",
      "constant": true
    },
    {
      "inputs": [],
      "name": "getRejectedReportsForSupplier",
      "outputs": [
        {
          "components": [
            {
              "internalType": "string",
              "name": "projectName",
              "type": "string"
            },
            {
              "internalType": "string",
              "name": "companyPhone",
              "type": "string"
            },
            {
              "internalType": "string",
              "name": "geographicLocation",
              "type": "string"
            },
            {
              "internalType": "string",
              "name": "reportIPFSLink",
              "type": "string"
            },
            {
              "internalType": "uint256",
              "name": "creditAmount",
              "type": "uint256"
            },
            {
              "internalType": "uint256",
              "name": "timestamp",
              "type": "uint256"
            },
            {
              "internalType": "enum CarbonCredits.ReportStatus",
              "name": "status",
              "type": "uint8"
            },
            {
              "internalType": "address",
              "name": "supplier",
              "type": "address"
            },
            {
              "internalType": "uint256",
              "name": "id",
              "type": "uint256"
            }
          ],
          "internalType": "struct CarbonCredits.ProjectReport[]",
          "name": "",
          "type": "tuple[]"
        }
      ],
      "stateMutability": "view",
      "type": "function",
      "constant": true
    },
    {
      "inputs": [],
      "name": "getSuppliers",
      "outputs": [
        {
          "components": [
            {
              "internalType": "address",
              "name": "supplierAdd",
              "type": "address"
            },
            {
              "internalType": "uint256",
              "name": "balance",
              "type": "uint256"
            }
          ],
          "internalType": "struct CarbonCredits.SupplierAddBalance[]",
          "name": "",
          "type": "tuple[]"
        }
      ],
      "stateMutability": "view",
      "type": "function",
      "constant": true
    },
    {
      "inputs": [],
      "name": "gettressurybalance",
      "outputs": [
        {
          "internalType": "uint256",
          "name": "",
          "type": "uint256"
        }
      ],
      "stateMutability": "view",
      "type": "function",
      "constant": true
    }
  ],
  "bytecode": "0x608060405234801561001057600080fd5b50615eae80620000216000396000f3fe6080604052600436106101815760003560e01c80639bae8747116100d1578063b0e420541161008a578063c8f94e1f11610064578063c8f94e1f1461057a578063d2d8cb67146105a5578063d490b8a2146105d0578063e7c17197146105f957610181565b8063b0e42054146104f7578063b34e97e814610522578063bff1f9e11461054f57610181565b80639bae8747146103c7578063a1e83b9f146103f0578063a2309ff814610435578063a85cdc6d14610460578063a87430ba1461048b578063afa106c9146104cc57610181565b8063435168321161013e57806371efebb91161011857806371efebb91461031a5780637643d731146103365780637d2f8a5914610373578063902d55a51461039c57610181565b8063435168321461029b5780634a5e8183146102c657806361ac9559146102f157610181565b80630d3a28a91461018657806312065fe0146101b157806327e235e3146101dc578063328629cf1461021957806336f7d5d514610256578063411cee7d14610272575b600080fd5b34801561019257600080fd5b5061019b610615565b6040516101a89190615538565b60405180910390f35b3480156101bd57600080fd5b506101c6610727565b6040516101d39190615952565b60405180910390f35b3480156101e857600080fd5b5061020360048036038101906101fe9190614a5c565b61076e565b6040516102109190615952565b60405180910390f35b34801561022557600080fd5b50610240600480360381019061023b9190614c40565b610786565b60405161024d9190615952565b60405180910390f35b610270600480360381019061026b9190614c40565b6108fe565b005b34801561027e57600080fd5b5061029960048036038101906102949190614ac1565b610b2d565b005b3480156102a757600080fd5b506102b0610e6c565b6040516102bd919061555a565b60405180910390f35b3480156102d257600080fd5b506102db611093565b6040516102e89190615952565b60405180910390f35b3480156102fd57600080fd5b5061031860048036038101906103139190614a85565b6112b0565b005b610334600480360381019061032f9190614c17565b6115da565b005b34801561034257600080fd5b5061035d60048036038101906103589190614c17565b61182e565b60405161036a91906154e6565b60405180910390f35b34801561037f57600080fd5b5061039a60048036038101906103959190614a85565b61186d565b005b3480156103a857600080fd5b506103b1611b95565b6040516103be9190615952565b60405180910390f35b3480156103d357600080fd5b506103ee60048036038101906103e99190614a85565b611ba5565b005b3480156103fc57600080fd5b5061041760048036038101906104129190614a85565b611f62565b60405161042c99989796959493929190615644565b60405180910390f35b34801561044157600080fd5b5061044a61221a565b6040516104579190615952565b60405180910390f35b34801561046c57600080fd5b50610475612220565b6040516104829190615538565b60405180910390f35b34801561049757600080fd5b506104b260048036038101906104ad9190614a5c565b612600565b6040516104c39594939291906155e3565b60405180910390f35b3480156104d857600080fd5b506104e1612760565b6040516104ee9190615538565b60405180910390f35b34801561050357600080fd5b5061050c612873565b6040516105199190615538565b60405180910390f35b34801561052e57600080fd5b50610537612985565b604051610546939291906155a5565b60405180910390f35b34801561055b57600080fd5b50610564612c50565b6040516105719190615952565b60405180910390f35b34801561058657600080fd5b5061058f612c56565b60405161059c9190615538565b60405180910390f35b3480156105b157600080fd5b506105ba612d69565b6040516105c79190615952565b60405180910390f35b3480156105dc57600080fd5b506105f760048036038101906105f29190614a85565b612d75565b005b610613600480360381019061060e9190614b40565b61309f565b005b606060036004811115610651577f4e487b7100000000000000000000000000000000000000000000000000000000600052602160045260246000fd5b6000803373ffffffffffffffffffffffffffffffffffffffff1673ffffffffffffffffffffffffffffffffffffffff16815260200190815260200160002060020160009054906101000a900460ff1660048111156106d8577f4e487b7100000000000000000000000000000000000000000000000000000000600052602160045260246000fd5b14610718576040517f08c379a000000000000000000000000000000000000000000000000000000000815260040161070f906158d2565b60405180910390fd5b61072260016135c7565b905090565b6000600460003373ffffffffffffffffffffffffffffffffffffffff1673ffffffffffffffffffffffffffffffffffffffff16815260200190815260200160002054905090565b60046020528060005260406000206000915090505481565b600082600460003373ffffffffffffffffffffffffffffffffffffffff1673ffffffffffffffffffffffffffffffffffffffff16815260200190815260200160002054101561080a576040517f08c379a0000000000000000000000000000000000000000000000000000000008152600401610801906157f2565b60405180910390fd5b82600460003373ffffffffffffffffffffffffffffffffffffffff1673ffffffffffffffffffffffffffffffffffffffff16815260200190815260200160002060008282546108599190615b4e565b9250508190555082600460008473ffffffffffffffffffffffffffffffffffffffff1673ffffffffffffffffffffffffffffffffffffffff16815260200190815260200160002060008282546108af9190615a6d565b92505081905550600460003373ffffffffffffffffffffffffffffffffffffffff1673ffffffffffffffffffffffffffffffffffffffff16815260200190815260200160002054905092915050565b6000662386f26fc10000836109139190615af4565b905080341015610958576040517f08c379a000000000000000000000000000000000000000000000000000000000815260040161094f90615832565b60405180910390fd5b82600460008473ffffffffffffffffffffffffffffffffffffffff1673ffffffffffffffffffffffffffffffffffffffff1681526020019081526020016000205410156109da576040517f08c379a00000000000000000000000000000000000000000000000000000000081526004016109d1906157b2565b60405180910390fd5b82600460003373ffffffffffffffffffffffffffffffffffffffff1673ffffffffffffffffffffffffffffffffffffffff1681526020019081526020016000206000828254610a299190615a6d565b9250508190555082600460008473ffffffffffffffffffffffffffffffffffffffff1673ffffffffffffffffffffffffffffffffffffffff1681526020019081526020016000206000828254610a7f9190615b4e565b925050819055508173ffffffffffffffffffffffffffffffffffffffff166108fc829081150290604051600060405180830381858888f19350505050158015610acc573d6000803e3d6000fd5b5080341115610b28573373ffffffffffffffffffffffffffffffffffffffff166108fc8234610afb9190615b4e565b9081150290604051600060405180830381858888f19350505050158015610b26573d6000803e3d6000fd5b505b505050565b6000803373ffffffffffffffffffffffffffffffffffffffff1673ffffffffffffffffffffffffffffffffffffffff16815260200190815260200160002060040160009054906101000a900460ff1615610bbc576040517f08c379a0000000000000000000000000000000000000000000000000000000008152600401610bb3906158b2565b60405180910390fd5b60006004811115610bf6577f4e487b7100000000000000000000000000000000000000000000000000000000600052602160045260246000fd5b816004811115610c2f577f4e487b7100000000000000000000000000000000000000000000000000000000600052602160045260246000fd5b1415610c70576040517f08c379a0000000000000000000000000000000000000000000000000000000008152600401610c6790615792565b60405180910390fd5b60003342600154604051602001610c89939291906154a9565b6040516020818303038152906040528051906020012090506040518060a00160405280858152602001848152602001836004811115610cf1577f4e487b7100000000000000000000000000000000000000000000000000000000600052602160045260246000fd5b8152602001828152602001600115158152506000803373ffffffffffffffffffffffffffffffffffffffff1673ffffffffffffffffffffffffffffffffffffffff1681526020019081526020016000206000820151816000019080519060200190610d5d929190614848565b506020820151816001019080519060200190610d7a929190614848565b5060408201518160020160006101000a81548160ff02191690836004811115610dcc577f4e487b7100000000000000000000000000000000000000000000000000000000600052602160045260246000fd5b02179055506060820151816003015560808201518160040160006101000a81548160ff02191690831515021790555090505060016000815480929190610e1190615c92565b91905055503373ffffffffffffffffffffffffffffffffffffffff167ff1ca5ac5ca77d73c20c0b604b3509c38a408493f1cb6095afa66bc8aa73a9ecf8383604051610e5e92919061557c565b60405180910390a250505050565b60606000600580549050905060008167ffffffffffffffff811115610eba577f4e487b7100000000000000000000000000000000000000000000000000000000600052604160045260246000fd5b604051908082528060200260200182016040528015610ef357816020015b610ee06148ce565b815260200190600190039081610ed85790505b50905060005b8281101561108a57604051806040016040528060058381548110610f46577f4e487b7100000000000000000000000000000000000000000000000000000000600052603260045260246000fd5b9060005260206000200160009054906101000a900473ffffffffffffffffffffffffffffffffffffffff1673ffffffffffffffffffffffffffffffffffffffff1681526020016004600060058581548110610fca577f4e487b7100000000000000000000000000000000000000000000000000000000600052603260045260246000fd5b9060005260206000200160009054906101000a900473ffffffffffffffffffffffffffffffffffffffff1673ffffffffffffffffffffffffffffffffffffffff1673ffffffffffffffffffffffffffffffffffffffff1681526020019081526020016000205481525082828151811061106c577f4e487b7100000000000000000000000000000000000000000000000000000000600052603260045260246000fd5b6020026020010181905250808061108290615c92565b915050610ef9565b50809250505090565b6000600260048111156110cf577f4e487b7100000000000000000000000000000000000000000000000000000000600052602160045260246000fd5b6000803373ffffffffffffffffffffffffffffffffffffffff1673ffffffffffffffffffffffffffffffffffffffff16815260200190815260200160002060020160009054906101000a900460ff166004811115611156577f4e487b7100000000000000000000000000000000000000000000000000000000600052602160045260246000fd5b14611196576040517f08c379a000000000000000000000000000000000000000000000000000000000815260040161118d90615752565b60405180910390fd5b600360048111156111d0577f4e487b7100000000000000000000000000000000000000000000000000000000600052602160045260246000fd5b6000803373ffffffffffffffffffffffffffffffffffffffff1673ffffffffffffffffffffffffffffffffffffffff16815260200190815260200160002060020160009054906101000a900460ff166004811115611257577f4e487b7100000000000000000000000000000000000000000000000000000000600052602160045260246000fd5b14611297576040517f08c379a000000000000000000000000000000000000000000000000000000000815260040161128e906158d2565b60405180910390fd5b670de0b6b3a7640000476112ab9190615ac3565b905090565b600260048111156112ea577f4e487b7100000000000000000000000000000000000000000000000000000000600052602160045260246000fd5b6000803373ffffffffffffffffffffffffffffffffffffffff1673ffffffffffffffffffffffffffffffffffffffff16815260200190815260200160002060020160009054906101000a900460ff166004811115611371577f4e487b7100000000000000000000000000000000000000000000000000000000600052602160045260246000fd5b146113b1576040517f08c379a00000000000000000000000000000000000000000000000000000000081526004016113a890615752565b60405180910390fd5b600360008373ffffffffffffffffffffffffffffffffffffffff1673ffffffffffffffffffffffffffffffffffffffff168152602001908152602001600020805490508110611435576040517f08c379a000000000000000000000000000000000000000000000000000000000815260040161142c906157d2565b60405180910390fd5b6000600360008473ffffffffffffffffffffffffffffffffffffffff1673ffffffffffffffffffffffffffffffffffffffff16815260200190815260200160002082815481106114ae577f4e487b7100000000000000000000000000000000000000000000000000000000600052603260045260246000fd5b90600052602060002090600802019050600060038111156114f8577f4e487b7100000000000000000000000000000000000000000000000000000000600052602160045260246000fd5b8160060160009054906101000a900460ff166003811115611542577f4e487b7100000000000000000000000000000000000000000000000000000000600052602160045260246000fd5b14611582576040517f08c379a000000000000000000000000000000000000000000000000000000000815260040161157990615812565b60405180910390fd5b60038160060160006101000a81548160ff021916908360038111156115d0577f4e487b7100000000000000000000000000000000000000000000000000000000600052602160045260246000fd5b0217905550505050565b60016004811115611614577f4e487b7100000000000000000000000000000000000000000000000000000000600052602160045260246000fd5b6000803373ffffffffffffffffffffffffffffffffffffffff1673ffffffffffffffffffffffffffffffffffffffff16815260200190815260200160002060020160009054906101000a900460ff16600481111561169b577f4e487b7100000000000000000000000000000000000000000000000000000000600052602160045260246000fd5b146116db576040517f08c379a00000000000000000000000000000000000000000000000000000000081526004016116d290615892565b60405180910390fd5b6000600360003373ffffffffffffffffffffffffffffffffffffffff1673ffffffffffffffffffffffffffffffffffffffff1681526020019081526020016000208281548110611754577f4e487b7100000000000000000000000000000000000000000000000000000000600052603260045260246000fd5b9060005260206000209060080201905060006064670de0b6b3a764000083600401546117809190615af4565b61178a9190615ac3565b9050803410156117cf576040517f08c379a00000000000000000000000000000000000000000000000000000000081526004016117c690615912565b60405180910390fd5b8160040154600460003373ffffffffffffffffffffffffffffffffffffffff1673ffffffffffffffffffffffffffffffffffffffff16815260200190815260200160002060008282546118229190615a6d565b92505081905550505050565b6005818154811061183e57600080fd5b906000526020600020016000915054906101000a900473ffffffffffffffffffffffffffffffffffffffff1681565b600160048111156118a7577f4e487b7100000000000000000000000000000000000000000000000000000000600052602160045260246000fd5b6000803373ffffffffffffffffffffffffffffffffffffffff1673ffffffffffffffffffffffffffffffffffffffff16815260200190815260200160002060020160009054906101000a900460ff16600481111561192e577f4e487b7100000000000000000000000000000000000000000000000000000000600052602160045260246000fd5b1461196e576040517f08c379a000000000000000000000000000000000000000000000000000000000815260040161196590615892565b60405180910390fd5b80600460003373ffffffffffffffffffffffffffffffffffffffff1673ffffffffffffffffffffffffffffffffffffffff1681526020019081526020016000205410156119f0576040517f08c379a00000000000000000000000000000000000000000000000000000000081526004016119e790615772565b60405180910390fd5b600067016345785d8a000082611a069190615af4565b905080471015611a4b576040517f08c379a0000000000000000000000000000000000000000000000000000000008152600401611a4290615932565b60405180910390fd5b81600460003373ffffffffffffffffffffffffffffffffffffffff1673ffffffffffffffffffffffffffffffffffffffff1681526020019081526020016000206000828254611a9a9190615b4e565b9250508190555081600460008573ffffffffffffffffffffffffffffffffffffffff1673ffffffffffffffffffffffffffffffffffffffff1681526020019081526020016000206000828254611af09190615a6d565b925050819055503373ffffffffffffffffffffffffffffffffffffffff166108fc829081150290604051600060405180830381858888f19350505050158015611b3d573d6000803e3d6000fd5b503373ffffffffffffffffffffffffffffffffffffffff167fa3339abcba85c35875eb6b7eb4ec40d708f24bcff32eba771d2694fdf482d0d2848484604051611b8893929190615501565b60405180910390a2505050565b6b033b2e3c9fd0803ce800000081565b60036004811115611bdf577f4e487b7100000000000000000000000000000000000000000000000000000000600052602160045260246000fd5b6000803373ffffffffffffffffffffffffffffffffffffffff1673ffffffffffffffffffffffffffffffffffffffff16815260200190815260200160002060020160009054906101000a900460ff166004811115611c66577f4e487b7100000000000000000000000000000000000000000000000000000000600052602160045260246000fd5b14611ca6576040517f08c379a0000000000000000000000000000000000000000000000000000000008152600401611c9d906158d2565b60405180910390fd5b6000600360008473ffffffffffffffffffffffffffffffffffffffff1673ffffffffffffffffffffffffffffffffffffffff1681526020019081526020016000208281548110611d1f577f4e487b7100000000000000000000000000000000000000000000000000000000600052603260045260246000fd5b9060005260206000209060080201905060016003811115611d69577f4e487b7100000000000000000000000000000000000000000000000000000000600052602160045260246000fd5b8160060160009054906101000a900460ff166003811115611db3577f4e487b7100000000000000000000000000000000000000000000000000000000600052602160045260246000fd5b14611df3576040517f08c379a0000000000000000000000000000000000000000000000000000000008152600401611dea90615732565b60405180910390fd5b60026003811115611e2d577f4e487b7100000000000000000000000000000000000000000000000000000000600052602160045260246000fd5b8160060160009054906101000a900460ff166003811115611e77577f4e487b7100000000000000000000000000000000000000000000000000000000600052602160045260246000fd5b1415611eb8576040517f08c379a0000000000000000000000000000000000000000000000000000000008152600401611eaf90615872565b60405180910390fd5b60028160060160006101000a81548160ff02191690836003811115611f06577f4e487b7100000000000000000000000000000000000000000000000000000000600052602160045260246000fd5b02179055508273ffffffffffffffffffffffffffffffffffffffff167f8de2f08a37846cafc40abbdddb36ce9ea46df1cf86836123e0ce993f168912488260040154604051611f559190615952565b60405180910390a2505050565b60036020528160005260406000208181548110611f7e57600080fd5b906000526020600020906008020160009150915050806000018054611fa290615c60565b80601f0160208091040260200160405190810160405280929190818152602001828054611fce90615c60565b801561201b5780601f10611ff05761010080835404028352916020019161201b565b820191906000526020600020905b815481529060010190602001808311611ffe57829003601f168201915b50505050509080600101805461203090615c60565b80601f016020809104026020016040519081016040528092919081815260200182805461205c90615c60565b80156120a95780601f1061207e576101008083540402835291602001916120a9565b820191906000526020600020905b81548152906001019060200180831161208c57829003601f168201915b5050505050908060020180546120be90615c60565b80601f01602080910402602001604051908101604052809291908181526020018280546120ea90615c60565b80156121375780601f1061210c57610100808354040283529160200191612137565b820191906000526020600020905b81548152906001019060200180831161211a57829003601f168201915b50505050509080600301805461214c90615c60565b80601f016020809104026020016040519081016040528092919081815260200182805461217890615c60565b80156121c55780601f1061219a576101008083540402835291602001916121c5565b820191906000526020600020905b8154815290600101906020018083116121a857829003601f168201915b5050505050908060040154908060050154908060060160009054906101000a900460ff16908060060160019054906101000a900473ffffffffffffffffffffffffffffffffffffffff16908060070154905089565b60025481565b6060600360003373ffffffffffffffffffffffffffffffffffffffff1673ffffffffffffffffffffffffffffffffffffffff168152602001908152602001600020805480602002602001604051908101604052809291908181526020016000905b828210156125f75783829060005260206000209060080201604051806101200160405290816000820180546122b590615c60565b80601f01602080910402602001604051908101604052809291908181526020018280546122e190615c60565b801561232e5780601f106123035761010080835404028352916020019161232e565b820191906000526020600020905b81548152906001019060200180831161231157829003601f168201915b5050505050815260200160018201805461234790615c60565b80601f016020809104026020016040519081016040528092919081815260200182805461237390615c60565b80156123c05780601f10612395576101008083540402835291602001916123c0565b820191906000526020600020905b8154815290600101906020018083116123a357829003601f168201915b505050505081526020016002820180546123d990615c60565b80601f016020809104026020016040519081016040528092919081815260200182805461240590615c60565b80156124525780601f1061242757610100808354040283529160200191612452565b820191906000526020600020905b81548152906001019060200180831161243557829003601f168201915b5050505050815260200160038201805461246b90615c60565b80601f016020809104026020016040519081016040528092919081815260200182805461249790615c60565b80156124e45780601f106124b9576101008083540402835291602001916124e4565b820191906000526020600020905b8154815290600101906020018083116124c757829003601f168201915b5050505050815260200160048201548152602001600582015481526020016006820160009054906101000a900460ff16600381111561254c577f4e487b7100000000000000000000000000000000000000000000000000000000600052602160045260246000fd5b6003811115612584577f4e487b7100000000000000000000000000000000000000000000000000000000600052602160045260246000fd5b81526020016006820160019054906101000a900473ffffffffffffffffffffffffffffffffffffffff1673ffffffffffffffffffffffffffffffffffffffff1673ffffffffffffffffffffffffffffffffffffffff16815260200160078201548152505081526020019060010190612281565b50505050905090565b600060205280600052604060002060009150905080600001805461262390615c60565b80601f016020809104026020016040519081016040528092919081815260200182805461264f90615c60565b801561269c5780601f106126715761010080835404028352916020019161269c565b820191906000526020600020905b81548152906001019060200180831161267f57829003601f168201915b5050505050908060010180546126b190615c60565b80601f01602080910402602001604051908101604052809291908181526020018280546126dd90615c60565b801561272a5780601f106126ff5761010080835404028352916020019161272a565b820191906000526020600020905b81548152906001019060200180831161270d57829003601f168201915b5050505050908060020160009054906101000a900460ff16908060030154908060040160009054906101000a900460ff16905085565b60606001600481111561279c577f4e487b7100000000000000000000000000000000000000000000000000000000600052602160045260246000fd5b6000803373ffffffffffffffffffffffffffffffffffffffff1673ffffffffffffffffffffffffffffffffffffffff16815260200190815260200160002060020160009054906101000a900460ff166004811115612823577f4e487b7100000000000000000000000000000000000000000000000000000000600052602160045260246000fd5b14612863576040517f08c379a000000000000000000000000000000000000000000000000000000000815260040161285a90615892565b60405180910390fd5b61286e336002614181565b905090565b6060600260048111156128af577f4e487b7100000000000000000000000000000000000000000000000000000000600052602160045260246000fd5b6000803373ffffffffffffffffffffffffffffffffffffffff1673ffffffffffffffffffffffffffffffffffffffff16815260200190815260200160002060020160009054906101000a900460ff166004811115612936577f4e487b7100000000000000000000000000000000000000000000000000000000600052602160045260246000fd5b14612976576040517f08c379a000000000000000000000000000000000000000000000000000000000815260040161296d90615752565b60405180910390fd5b61298060006135c7565b905090565b60606000806000803373ffffffffffffffffffffffffffffffffffffffff1673ffffffffffffffffffffffffffffffffffffffff16815260200190815260200160002060040160009054906101000a900460ff16612a18576040517f08c379a0000000000000000000000000000000000000000000000000000000008152600401612a0f906158f2565b60405180910390fd5b60008060003373ffffffffffffffffffffffffffffffffffffffff1673ffffffffffffffffffffffffffffffffffffffff1681526020019081526020016000206040518060a0016040529081600082018054612a7390615c60565b80601f0160208091040260200160405190810160405280929190818152602001828054612a9f90615c60565b8015612aec5780601f10612ac157610100808354040283529160200191612aec565b820191906000526020600020905b815481529060010190602001808311612acf57829003601f168201915b50505050508152602001600182018054612b0590615c60565b80601f0160208091040260200160405190810160405280929190818152602001828054612b3190615c60565b8015612b7e5780601f10612b5357610100808354040283529160200191612b7e565b820191906000526020600020905b815481529060010190602001808311612b6157829003601f168201915b505050505081526020016002820160009054906101000a900460ff166004811115612bd2577f4e487b7100000000000000000000000000000000000000000000000000000000600052602160045260246000fd5b6004811115612c0a577f4e487b7100000000000000000000000000000000000000000000000000000000600052602160045260246000fd5b8152602001600382015481526020016004820160009054906101000a900460ff161515151581525050905080600001518160400151826060015193509350935050909192565b60015481565b606060016004811115612c92577f4e487b7100000000000000000000000000000000000000000000000000000000600052602160045260246000fd5b6000803373ffffffffffffffffffffffffffffffffffffffff1673ffffffffffffffffffffffffffffffffffffffff16815260200190815260200160002060020160009054906101000a900460ff166004811115612d19577f4e487b7100000000000000000000000000000000000000000000000000000000600052602160045260246000fd5b14612d59576040517f08c379a0000000000000000000000000000000000000000000000000000000008152600401612d5090615892565b60405180910390fd5b612d64336002614181565b905090565b67016345785d8a000081565b60026004811115612daf577f4e487b7100000000000000000000000000000000000000000000000000000000600052602160045260246000fd5b6000803373ffffffffffffffffffffffffffffffffffffffff1673ffffffffffffffffffffffffffffffffffffffff16815260200190815260200160002060020160009054906101000a900460ff166004811115612e36577f4e487b7100000000000000000000000000000000000000000000000000000000600052602160045260246000fd5b14612e76576040517f08c379a0000000000000000000000000000000000000000000000000000000008152600401612e6d90615752565b60405180910390fd5b600360008373ffffffffffffffffffffffffffffffffffffffff1673ffffffffffffffffffffffffffffffffffffffff168152602001908152602001600020805490508110612efa576040517f08c379a0000000000000000000000000000000000000000000000000000000008152600401612ef1906157d2565b60405180910390fd5b6000600360008473ffffffffffffffffffffffffffffffffffffffff1673ffffffffffffffffffffffffffffffffffffffff1681526020019081526020016000208281548110612f73577f4e487b7100000000000000000000000000000000000000000000000000000000600052603260045260246000fd5b9060005260206000209060080201905060006003811115612fbd577f4e487b7100000000000000000000000000000000000000000000000000000000600052602160045260246000fd5b8160060160009054906101000a900460ff166003811115613007577f4e487b7100000000000000000000000000000000000000000000000000000000600052602160045260246000fd5b14613047576040517f08c379a000000000000000000000000000000000000000000000000000000000815260040161303e90615812565b60405180910390fd5b60018160060160006101000a81548160ff02191690836003811115613095577f4e487b7100000000000000000000000000000000000000000000000000000000600052602160045260246000fd5b0217905550505050565b600160048111156130d9577f4e487b7100000000000000000000000000000000000000000000000000000000600052602160045260246000fd5b6000803373ffffffffffffffffffffffffffffffffffffffff1673ffffffffffffffffffffffffffffffffffffffff16815260200190815260200160002060020160009054906101000a900460ff166004811115613160577f4e487b7100000000000000000000000000000000000000000000000000000000600052602160045260246000fd5b146131a0576040517f08c379a000000000000000000000000000000000000000000000000000000000815260040161319790615892565b60405180910390fd5b670de0b6b3a764000034146131ea576040517f08c379a00000000000000000000000000000000000000000000000000000000081526004016131e190615852565b60405180910390fd5b6000600360003373ffffffffffffffffffffffffffffffffffffffff1673ffffffffffffffffffffffffffffffffffffffff16815260200190815260200160002080549050905060006040518061012001604052808881526020018781526020018681526020018581526020018481526020014281526020016000600381111561329d577f4e487b7100000000000000000000000000000000000000000000000000000000600052602160045260246000fd5b81526020013373ffffffffffffffffffffffffffffffffffffffff168152602001838152509050600360003373ffffffffffffffffffffffffffffffffffffffff1673ffffffffffffffffffffffffffffffffffffffff1681526020019081526020016000208190806001815401808255809150506001900390600052602060002090600802016000909190919091506000820151816000019080519060200190613349929190614848565b506020820151816001019080519060200190613366929190614848565b506040820151816002019080519060200190613383929190614848565b5060608201518160030190805190602001906133a0929190614848565b506080820151816004015560a0820151816005015560c08201518160060160006101000a81548160ff02191690836003811115613406577f4e487b7100000000000000000000000000000000000000000000000000000000600052602160045260246000fd5b021790555060e08201518160060160016101000a81548173ffffffffffffffffffffffffffffffffffffffff021916908373ffffffffffffffffffffffffffffffffffffffff16021790555061010082015181600701555050600660003373ffffffffffffffffffffffffffffffffffffffff1673ffffffffffffffffffffffffffffffffffffffff16815260200190815260200160002060009054906101000a900460ff1661356c576005339080600181540180825580915050600190039060005260206000200160009091909190916101000a81548173ffffffffffffffffffffffffffffffffffffffff021916908373ffffffffffffffffffffffffffffffffffffffff1602179055506001600660003373ffffffffffffffffffffffffffffffffffffffff1673ffffffffffffffffffffffffffffffffffffffff16815260200190815260200160002060006101000a81548160ff0219169083151502179055505b3373ffffffffffffffffffffffffffffffffffffffff167fff0e4bb97bb1f64aabcdd9c29eed6588cbf65acf3699e74313f218307bded0ff8886866040516135b6939291906156ed565b60405180910390a250505050505050565b60606000805b600580549050811015613b1a576000600360006005848154811061361a577f4e487b7100000000000000000000000000000000000000000000000000000000600052603260045260246000fd5b9060005260206000200160009054906101000a900473ffffffffffffffffffffffffffffffffffffffff1673ffffffffffffffffffffffffffffffffffffffff1673ffffffffffffffffffffffffffffffffffffffff168152602001908152602001600020805480602002602001604051908101604052809291908181526020016000905b82821015613a155783829060005260206000209060080201604051806101200160405290816000820180546136d390615c60565b80601f01602080910402602001604051908101604052809291908181526020018280546136ff90615c60565b801561374c5780601f106137215761010080835404028352916020019161374c565b820191906000526020600020905b81548152906001019060200180831161372f57829003601f168201915b5050505050815260200160018201805461376590615c60565b80601f016020809104026020016040519081016040528092919081815260200182805461379190615c60565b80156137de5780601f106137b3576101008083540402835291602001916137de565b820191906000526020600020905b8154815290600101906020018083116137c157829003601f168201915b505050505081526020016002820180546137f790615c60565b80601f016020809104026020016040519081016040528092919081815260200182805461382390615c60565b80156138705780601f1061384557610100808354040283529160200191613870565b820191906000526020600020905b81548152906001019060200180831161385357829003601f168201915b5050505050815260200160038201805461388990615c60565b80601f01602080910402602001604051908101604052809291908181526020018280546138b590615c60565b80156139025780601f106138d757610100808354040283529160200191613902565b820191906000526020600020905b8154815290600101906020018083116138e557829003601f168201915b5050505050815260200160048201548152602001600582015481526020016006820160009054906101000a900460ff16600381111561396a577f4e487b7100000000000000000000000000000000000000000000000000000000600052602160045260246000fd5b60038111156139a2577f4e487b7100000000000000000000000000000000000000000000000000000000600052602160045260246000fd5b81526020016006820160019054906101000a900473ffffffffffffffffffffffffffffffffffffffff1673ffffffffffffffffffffffffffffffffffffffff1673ffffffffffffffffffffffffffffffffffffffff1681526020016007820154815250508152602001906001019061369f565b50505050905060005b8151811015613b0557856003811115613a60577f4e487b7100000000000000000000000000000000000000000000000000000000600052602160045260246000fd5b828281518110613a99577f4e487b7100000000000000000000000000000000000000000000000000000000600052603260045260246000fd5b602002602001015160c001516003811115613add577f4e487b7100000000000000000000000000000000000000000000000000000000600052602160045260246000fd5b1415613af2578380613aee90615c92565b9450505b8080613afd90615c92565b915050613a1e565b50508080613b1290615c92565b9150506135cd565b5060008167ffffffffffffffff811115613b5d577f4e487b7100000000000000000000000000000000000000000000000000000000600052604160045260246000fd5b604051908082528060200260200182016040528015613b9657816020015b613b836148fe565b815260200190600190039081613b7b5790505b5090506000805b60058054905081101561417557600060058281548110613be6577f4e487b7100000000000000000000000000000000000000000000000000000000600052603260045260246000fd5b9060005260206000200160009054906101000a900473ffffffffffffffffffffffffffffffffffffffff1690506000600360008373ffffffffffffffffffffffffffffffffffffffff1673ffffffffffffffffffffffffffffffffffffffff168152602001908152602001600020805480602002602001604051908101604052809291908181526020016000905b82821015613fea578382906000526020600020906008020160405180610120016040529081600082018054613ca890615c60565b80601f0160208091040260200160405190810160405280929190818152602001828054613cd490615c60565b8015613d215780601f10613cf657610100808354040283529160200191613d21565b820191906000526020600020905b815481529060010190602001808311613d0457829003601f168201915b50505050508152602001600182018054613d3a90615c60565b80601f0160208091040260200160405190810160405280929190818152602001828054613d6690615c60565b8015613db35780601f10613d8857610100808354040283529160200191613db3565b820191906000526020600020905b815481529060010190602001808311613d9657829003601f168201915b50505050508152602001600282018054613dcc90615c60565b80601f0160208091040260200160405190810160405280929190818152602001828054613df890615c60565b8015613e455780601f10613e1a57610100808354040283529160200191613e45565b820191906000526020600020905b815481529060010190602001808311613e2857829003601f168201915b50505050508152602001600382018054613e5e90615c60565b80601f0160208091040260200160405190810160405280929190818152602001828054613e8a90615c60565b8015613ed75780601f10613eac57610100808354040283529160200191613ed7565b820191906000526020600020905b815481529060010190602001808311613eba57829003601f168201915b5050505050815260200160048201548152602001600582015481526020016006820160009054906101000a900460ff166003811115613f3f577f4e487b7100000000000000000000000000000000000000000000000000000000600052602160045260246000fd5b6003811115613f77577f4e487b7100000000000000000000000000000000000000000000000000000000600052602160045260246000fd5b81526020016006820160019054906101000a900473ffffffffffffffffffffffffffffffffffffffff1673ffffffffffffffffffffffffffffffffffffffff1673ffffffffffffffffffffffffffffffffffffffff16815260200160078201548152505081526020019060010190613c74565b50505050905060005b815181101561415f57886003811115614035577f4e487b7100000000000000000000000000000000000000000000000000000000600052602160045260246000fd5b82828151811061406e577f4e487b7100000000000000000000000000000000000000000000000000000000600052603260045260246000fd5b602002602001015160c0015160038111156140b2577f4e487b7100000000000000000000000000000000000000000000000000000000600052602160045260246000fd5b141561414c578181815181106140f1577f4e487b7100000000000000000000000000000000000000000000000000000000600052603260045260246000fd5b6020026020010151868681518110614132577f4e487b7100000000000000000000000000000000000000000000000000000000600052603260045260246000fd5b6020026020010181905250848061414890615c92565b9550505b808061415790615c92565b915050613ff3565b505050808061416d90615c92565b915050613b9d565b50819350505050919050565b6060600080600360008673ffffffffffffffffffffffffffffffffffffffff1673ffffffffffffffffffffffffffffffffffffffff168152602001908152602001600020805480602002602001604051908101604052809291908181526020016000905b8282101561455b57838290600052602060002090600802016040518061012001604052908160008201805461421990615c60565b80601f016020809104026020016040519081016040528092919081815260200182805461424590615c60565b80156142925780601f1061426757610100808354040283529160200191614292565b820191906000526020600020905b81548152906001019060200180831161427557829003601f168201915b505050505081526020016001820180546142ab90615c60565b80601f01602080910402602001604051908101604052809291908181526020018280546142d790615c60565b80156143245780601f106142f957610100808354040283529160200191614324565b820191906000526020600020905b81548152906001019060200180831161430757829003601f168201915b5050505050815260200160028201805461433d90615c60565b80601f016020809104026020016040519081016040528092919081815260200182805461436990615c60565b80156143b65780601f1061438b576101008083540402835291602001916143b6565b820191906000526020600020905b81548152906001019060200180831161439957829003601f168201915b505050505081526020016003820180546143cf90615c60565b80601f01602080910402602001604051908101604052809291908181526020018280546143fb90615c60565b80156144485780601f1061441d57610100808354040283529160200191614448565b820191906000526020600020905b81548152906001019060200180831161442b57829003601f168201915b5050505050815260200160048201548152602001600582015481526020016006820160009054906101000a900460ff1660038111156144b0577f4e487b7100000000000000000000000000000000000000000000000000000000600052602160045260246000fd5b60038111156144e8577f4e487b7100000000000000000000000000000000000000000000000000000000600052602160045260246000fd5b81526020016006820160019054906101000a900473ffffffffffffffffffffffffffffffffffffffff1673ffffffffffffffffffffffffffffffffffffffff1673ffffffffffffffffffffffffffffffffffffffff168152602001600782015481525050815260200190600101906141e5565b50505050905060005b815181101561464b578460038111156145a6577f4e487b7100000000000000000000000000000000000000000000000000000000600052602160045260246000fd5b8282815181106145df577f4e487b7100000000000000000000000000000000000000000000000000000000600052603260045260246000fd5b602002602001015160c001516003811115614623577f4e487b7100000000000000000000000000000000000000000000000000000000600052602160045260246000fd5b141561463857828061463490615c92565b9350505b808061464390615c92565b915050614564565b5060008267ffffffffffffffff81111561468e577f4e487b7100000000000000000000000000000000000000000000000000000000600052604160045260246000fd5b6040519080825280602002602001820160405280156146c757816020015b6146b46148fe565b8152602001906001900390816146ac5790505b5090506000805b835181101561483a57866003811115614710577f4e487b7100000000000000000000000000000000000000000000000000000000600052602160045260246000fd5b848281518110614749577f4e487b7100000000000000000000000000000000000000000000000000000000600052603260045260246000fd5b602002602001015160c00151600381111561478d577f4e487b7100000000000000000000000000000000000000000000000000000000600052602160045260246000fd5b1415614827578381815181106147cc577f4e487b7100000000000000000000000000000000000000000000000000000000600052603260045260246000fd5b602002602001015183838151811061480d577f4e487b7100000000000000000000000000000000000000000000000000000000600052603260045260246000fd5b6020026020010181905250818061482390615c92565b9250505b808061483290615c92565b9150506146ce565b508194505050505092915050565b82805461485490615c60565b90600052602060002090601f01602090048101928261487657600085556148bd565b82601f1061488f57805160ff19168380011785556148bd565b828001600101855582156148bd579182015b828111156148bc5782518255916020019190600101906148a1565b5b5090506148ca9190614998565b5090565b6040518060400160405280600073ffffffffffffffffffffffffffffffffffffffff168152602001600081525090565b6040518061012001604052806060815260200160608152602001606081526020016060815260200160008152602001600081526020016000600381111561496e577f4e487b7100000000000000000000000000000000000000000000000000000000600052602160045260246000fd5b8152602001600073ffffffffffffffffffffffffffffffffffffffff168152602001600081525090565b5b808211156149b1576000816000905550600101614999565b5090565b60006149c86149c38461599e565b61596d565b9050828152602081018484840111156149e057600080fd5b6149eb848285615c1e565b509392505050565b600081359050614a0281615e3a565b92915050565b600081359050614a1781615e51565b92915050565b600082601f830112614a2e57600080fd5b8135614a3e8482602086016149b5565b91505092915050565b600081359050614a5681615e61565b92915050565b600060208284031215614a6e57600080fd5b6000614a7c848285016149f3565b91505092915050565b60008060408385031215614a9857600080fd5b6000614aa6858286016149f3565b9250506020614ab785828601614a47565b9150509250929050565b600080600060608486031215614ad657600080fd5b600084013567ffffffffffffffff811115614af057600080fd5b614afc86828701614a1d565b935050602084013567ffffffffffffffff811115614b1957600080fd5b614b2586828701614a1d565b9250506040614b3686828701614a08565b9150509250925092565b600080600080600060a08688031215614b5857600080fd5b600086013567ffffffffffffffff811115614b7257600080fd5b614b7e88828901614a1d565b955050602086013567ffffffffffffffff811115614b9b57600080fd5b614ba788828901614a1d565b945050604086013567ffffffffffffffff811115614bc457600080fd5b614bd088828901614a1d565b935050606086013567ffffffffffffffff811115614bed57600080fd5b614bf988828901614a1d565b9250506080614c0a88828901614a47565b9150509295509295909350565b600060208284031215614c2957600080fd5b6000614c3784828501614a47565b91505092915050565b60008060408385031215614c5357600080fd5b6000614c6185828601614a47565b9250506020614c72858286016149f3565b9150509250929050565b6000614c88838361536b565b905092915050565b6000614c9c8383615445565b60408301905092915050565b614cb181615b82565b82525050565b614cc081615b82565b82525050565b614cd7614cd282615b82565b615cdb565b82525050565b6000614ce8826159ee565b614cf28185615a29565b935083602082028501614d04856159ce565b8060005b85811015614d405784840389528151614d218582614c7c565b9450614d2c83615a0f565b925060208a01995050600181019050614d08565b50829750879550505050505092915050565b6000614d5d826159f9565b614d678185615a3a565b9350614d72836159de565b8060005b83811015614da3578151614d8a8882614c90565b9750614d9583615a1c565b925050600181019050614d76565b5085935050505092915050565b614db981615b94565b82525050565b614dc881615ba0565b82525050565b614dd781615bfa565b82525050565b614de681615bfa565b82525050565b614df581615c0c565b82525050565b6000614e0682615a04565b614e108185615a4b565b9350614e20818560208601615c2d565b614e2981615df4565b840191505092915050565b6000614e3f82615a04565b614e498185615a5c565b9350614e59818560208601615c2d565b614e6281615df4565b840191505092915050565b6000614e7a601f83615a5c565b91507f5265706f7274206e6f7420617070726f7665642062792041756469746f722e006000830152602082019050919050565b6000614eba601683615a5c565b91507f4f6e6c792041756469746f727320616c6c6f7765642e000000000000000000006000830152602082019050919050565b6000614efa602583615a5c565b91507f496e73756666696369656e742062616c616e636520746f2073656c6c2063726560008301527f646974732e0000000000000000000000000000000000000000000000000000006020830152604082019050919050565b6000614f60600d83615a5c565b91507f496e76616c696420726f6c652e000000000000000000000000000000000000006000830152602082019050919050565b6000614fa0602583615a5c565b91507f537570706c69657220646f6573206e6f74206861766520656e6f75676820637260008301527f65646974730000000000000000000000000000000000000000000000000000006020830152604082019050919050565b6000615006601583615a5c565b91507f496e76616c6964207265706f727420696e6465782e00000000000000000000006000830152602082019050919050565b6000615046601583615a5c565b91507f496e73756666696369656e742062616c616e63652e00000000000000000000006000830152602082019050919050565b6000615086601683615a5c565b91507f5265706f7274206973206e6f742070656e64696e672e000000000000000000006000830152602082019050919050565b60006150c6602483615a5c565b91507f496e73756666696369656e742045544820746f2070757263686173652063726560008301527f64697473000000000000000000000000000000000000000000000000000000006020830152604082019050919050565b600061512c601783615a5c565b91507f45786163742031204554482069732072657175697265640000000000000000006000830152602082019050919050565b600061516c601783615a5c565b91507f4372656469747320616c7265616479206d696e7465642e0000000000000000006000830152602082019050919050565b60006151ac601783615a5c565b91507f4f6e6c7920537570706c6965727320616c6c6f7765642e0000000000000000006000830152602082019050919050565b60006151ec601883615a5c565b91507f5573657220616c726561647920726567697374657265642e00000000000000006000830152602082019050919050565b600061522c601883615a5c565b91507f4f6e6c7920526567756c61746f727320616c6c6f7765642e00000000000000006000830152602082019050919050565b600061526c601483615a5c565b91507f55736572206e6f7420726567697374657265642e0000000000000000000000006000830152602082019050919050565b60006152ac602483615a5c565b91507f496e73756666696369656e742066756e64732073656e7420746f20627579207460008301527f6f6b656e000000000000000000000000000000000000000000000000000000006020830152604082019050919050565b6000615312603383615a5c565b91507f436f6e74726163742068617320696e73756666696369656e742045544820746f60008301527f20636f6d706c657465207468652073616c652e000000000000000000000000006020830152604082019050919050565b60006101208301600083015184820360008601526153898282614dfb565b915050602083015184820360208601526153a38282614dfb565b915050604083015184820360408601526153bd8282614dfb565b915050606083015184820360608601526153d78282614dfb565b91505060808301516153ec6080860182615474565b5060a08301516153ff60a0860182615474565b5060c083015161541260c0860182614dce565b5060e083015161542560e0860182614ca8565b5061010083015161543a610100860182615474565b508091505092915050565b60408201600082015161545b6000850182614ca8565b50602082015161546e6020850182615474565b50505050565b61547d81615bf0565b82525050565b61548c81615bf0565b82525050565b6154a361549e82615bf0565b615cff565b82525050565b60006154b58286614cc6565b6014820191506154c58285615492565b6020820191506154d58284615492565b602082019150819050949350505050565b60006020820190506154fb6000830184614cb7565b92915050565b60006060820190506155166000830186614cb7565b6155236020830185615483565b6155306040830184615483565b949350505050565b600060208201905081810360008301526155528184614cdd565b905092915050565b600060208201905081810360008301526155748184614d52565b905092915050565b60006040820190506155916000830185614dec565b61559e6020830184614dbf565b9392505050565b600060608201905081810360008301526155bf8186614e34565b90506155ce6020830185614dec565b6155db6040830184614dbf565b949350505050565b600060a08201905081810360008301526155fd8188614e34565b905081810360208301526156118187614e34565b90506156206040830186614dec565b61562d6060830185614dbf565b61563a6080830184614db0565b9695505050505050565b600061012082019050818103600083015261565f818c614e34565b90508181036020830152615673818b614e34565b90508181036040830152615687818a614e34565b9050818103606083015261569b8189614e34565b90506156aa6080830188615483565b6156b760a0830187615483565b6156c460c0830186614ddd565b6156d160e0830185614cb7565b6156df610100830184615483565b9a9950505050505050505050565b600060608201905081810360008301526157078186614e34565b9050818103602083015261571b8185614e34565b905061572a6040830184615483565b949350505050565b6000602082019050818103600083015261574b81614e6d565b9050919050565b6000602082019050818103600083015261576b81614ead565b9050919050565b6000602082019050818103600083015261578b81614eed565b9050919050565b600060208201905081810360008301526157ab81614f53565b9050919050565b600060208201905081810360008301526157cb81614f93565b9050919050565b600060208201905081810360008301526157eb81614ff9565b9050919050565b6000602082019050818103600083015261580b81615039565b9050919050565b6000602082019050818103600083015261582b81615079565b9050919050565b6000602082019050818103600083015261584b816150b9565b9050919050565b6000602082019050818103600083015261586b8161511f565b9050919050565b6000602082019050818103600083015261588b8161515f565b9050919050565b600060208201905081810360008301526158ab8161519f565b9050919050565b600060208201905081810360008301526158cb816151df565b9050919050565b600060208201905081810360008301526158eb8161521f565b9050919050565b6000602082019050818103600083015261590b8161525f565b9050919050565b6000602082019050818103600083015261592b8161529f565b9050919050565b6000602082019050818103600083015261594b81615305565b9050919050565b60006020820190506159676000830184615483565b92915050565b6000604051905081810181811067ffffffffffffffff8211171561599457615993615dc5565b5b8060405250919050565b600067ffffffffffffffff8211156159b9576159b8615dc5565b5b601f19601f8301169050602081019050919050565b6000819050602082019050919050565b6000819050602082019050919050565b600081519050919050565b600081519050919050565b600081519050919050565b6000602082019050919050565b6000602082019050919050565b600082825260208201905092915050565b600082825260208201905092915050565b600082825260208201905092915050565b600082825260208201905092915050565b6000615a7882615bf0565b9150615a8383615bf0565b9250827fffffffffffffffffffffffffffffffffffffffffffffffffffffffffffffffff03821115615ab857615ab7615d09565b5b828201905092915050565b6000615ace82615bf0565b9150615ad983615bf0565b925082615ae957615ae8615d38565b5b828204905092915050565b6000615aff82615bf0565b9150615b0a83615bf0565b9250817fffffffffffffffffffffffffffffffffffffffffffffffffffffffffffffffff0483118215151615615b4357615b42615d09565b5b828202905092915050565b6000615b5982615bf0565b9150615b6483615bf0565b925082821015615b7757615b76615d09565b5b828203905092915050565b6000615b8d82615bd0565b9050919050565b60008115159050919050565b6000819050919050565b6000819050615bb882615e12565b919050565b6000819050615bcb82615e26565b919050565b600073ffffffffffffffffffffffffffffffffffffffff82169050919050565b6000819050919050565b6000615c0582615baa565b9050919050565b6000615c1782615bbd565b9050919050565b82818337600083830152505050565b60005b83811015615c4b578082015181840152602081019050615c30565b83811115615c5a576000848401525b50505050565b60006002820490506001821680615c7857607f821691505b60208210811415615c8c57615c8b615d96565b5b50919050565b6000615c9d82615bf0565b91507fffffffffffffffffffffffffffffffffffffffffffffffffffffffffffffffff821415615cd057615ccf615d09565b5b600182019050919050565b6000615ce682615ced565b9050919050565b6000615cf882615e05565b9050919050565b6000819050919050565b7f4e487b7100000000000000000000000000000000000000000000000000000000600052601160045260246000fd5b7f4e487b7100000000000000000000000000000000000000000000000000000000600052601260045260246000fd5b7f4e487b7100000000000000000000000000000000000000000000000000000000600052602160045260246000fd5b7f4e487b7100000000000000000000000000000000000000000000000000000000600052602260045260246000fd5b7f4e487b7100000000000000000000000000000000000000000000000000000000600052604160045260246000fd5b6000601f19601f8301169050919050565b60008160601b9050919050565b60048110615e2357615e22615d67565b5b50565b60058110615e3757615e36615d67565b5b50565b615e4381615b82565b8114615e4e57600080fd5b50565b60058110615e5e57600080fd5b50565b615e6a81615bf0565b8114615e7557600080fd5b5056fea2646970667358221220463038abc91783fad3ec170956c6a379573f2e5d7efd95ac9452b44e2beaecd364736f6c63430008000033",
  "immutableReferences": {},
  "source": "// SPDX-License-Identifier: MIT\npragma solidity ^0.8.0;\n\npragma experimental ABIEncoderV2;\n\nimport \"./UserRegistry.sol\";\n\ncontract CarbonCredits is UserRegistry {\n    uint256 public constant TOKEN_PRICE = 0.1 ether; \n    uint256 public constant TOTAL_SUPPLY = 1_000_000_000 * 10 ** 18; \n    uint256 public totalMinted;\n\n    enum ReportStatus{\n        Pending,\n        Approved,\n        Minted,\n        Rejected\n    }\n\n    struct ProjectReport {\n        string projectName;\n        string companyPhone;\n        string geographicLocation;\n        string reportIPFSLink;\n        uint256 creditAmount;\n        uint256 timestamp;\n        ReportStatus status;\n        address supplier;\n        uint256 id;\n    }\n\n    struct SupplierAddBalance {\n        address supplierAdd;\n        uint balance;\n    }\n\n\n    mapping(address => ProjectReport[]) public projectReports;\n    mapping(address => uint256) public balances;\n    address[] public supplierAddresses;\n    mapping(address => bool) private isSupplierMap;\n\n    event ProjectSubmitted(\n        address indexed supplier,\n        string projectName,\n        string reportIPFSLink,\n        uint256 creditAmount\n    );\n    event CreditsMinted(address indexed supplier, uint256 amount);\n    event CreditsBought(address indexed buyer, uint256 amount, uint256 cost);\n    event CreditsSold(\n        address indexed seller,\n        address buyer,\n        uint256 amount,\n        uint256 revenue\n    );\n\n    // Modifiers\n    modifier onlySupplier() {\n        require(\n            users[msg.sender].role == Role.Supplier,\n            \"Only Suppliers allowed.\"\n        );\n        _;\n    }\n\n    modifier onlyRegulator() {\n        require(\n            users[msg.sender].role == Role.Regulator,\n            \"Only Regulators allowed.\"\n        );\n        _;\n    }\n\n    modifier onlyAuditor() {\n        require(\n            users[msg.sender].role == Role.Auditor,\n            \"Only Auditors allowed.\"\n        );\n        _;\n    }\n\n    function getBalance() public view returns (uint256) {\n        return balances[msg.sender];\n    }\n\n    function transferBalance(\n        uint256 amount,\n        address recipient\n    ) public returns (uint256) {\n        require(balances[msg.sender] >= amount, \"Insufficient balance.\");\n        balances[msg.sender] -= amount;\n        balances[recipient] += amount;\n        return balances[msg.sender];\n    }\n\n function buyCredits(uint256 amount, address _supplier) public payable {\n    uint256 requiredEth = amount * (1 ether / 100); // Calculate required ETH\n    \n    require(msg.value >= requiredEth, \"Insufficient ETH to purchase credits\");\n    require(balances[_supplier] >= amount, \"Supplier does not have enough credits\");\n    \n    balances[msg.sender] += amount;\n    balances[_supplier] -= amount;\n    \n    payable(_supplier).transfer(requiredEth);\n    \n    if (msg.value > requiredEth) {\n        payable(msg.sender).transfer(msg.value - requiredEth);\n    }\n}\n\n\n    function sellCredits(address buyer, uint256 amount) public onlySupplier {\n        require(\n            balances[msg.sender] >= amount,\n            \"Insufficient balance to sell credits.\"\n        );\n\n        uint256 revenue = amount * TOKEN_PRICE;\n        require(\n            address(this).balance >= revenue,\n            \"Contract has insufficient ETH to complete the sale.\"\n        );\n\n        // Update balances and transfer ETH to the seller\n        balances[msg.sender] -= amount;\n        balances[buyer] += amount;\n        payable(msg.sender).transfer(revenue); // Transfer ETH to the supplier\n\n        emit CreditsSold(msg.sender, buyer, amount, revenue);\n    }\n\n\nfunction submitReport(\n    string memory _projectName,\n    string memory _companyPhone,\n    string memory _geographicLocation,\n    string memory _reportIPFSLink,\n    uint256 _creditAmount\n) public payable onlySupplier {\n    require(msg.value == 1 ether, \"Exact 1 ETH is required\");\n    uint256 reportId = projectReports[msg.sender].length;\n\n    ProjectReport memory newReport = ProjectReport({\n        projectName: _projectName,\n        companyPhone: _companyPhone,\n        geographicLocation: _geographicLocation,\n        reportIPFSLink: _reportIPFSLink,\n        creditAmount: _creditAmount,\n        timestamp: block.timestamp,\n        status: ReportStatus.Pending,\n        supplier: msg.sender,\n        id: reportId\n    });\n\n    projectReports[msg.sender].push(newReport);\n\n    if (!isSupplierMap[msg.sender]) {\n        supplierAddresses.push(msg.sender);\n        isSupplierMap[msg.sender] = true;\n    }\n    emit ProjectSubmitted(\n        msg.sender,\n        _projectName,\n        _reportIPFSLink,\n        _creditAmount\n    );\n}\n\n\n    function getSupplierReports() public view returns (ProjectReport[] memory) {\n        return projectReports[msg.sender];\n    }\n\n    function viewPendingReportsForAuditor()\n        public\n        view\n        onlyAuditor\n        returns (ProjectReport[] memory)\n    {\n        return filterReportsByStatus(ReportStatus.Pending);\n    }\n\n    function viewPendingReportsForRegulator()\n        public\n        view\n        onlyRegulator\n        returns (ProjectReport[] memory)\n    {\n        return filterReportsByStatus(ReportStatus.Approved);\n    }\n\n    function approveReportByAuditor(\n        address supplier,\n        uint256 reportIndex\n    ) public onlyAuditor {\n        require(\n            reportIndex < projectReports[supplier].length,\n            \"Invalid report index.\"\n        );\n        ProjectReport storage report = projectReports[supplier][reportIndex];\n        require(\n            report.status == ReportStatus.Pending,\n            \"Report is not pending.\"\n        );\n        report.status = ReportStatus.Approved;\n    }\n\n    function rejectReportByAuditor(\n        address supplier,\n        uint256 reportIndex\n    ) public onlyAuditor {\n        require(\n            reportIndex < projectReports[supplier].length,\n            \"Invalid report index.\"\n        );\n        ProjectReport storage report = projectReports[supplier][reportIndex];\n        require(\n            report.status == ReportStatus.Pending,\n            \"Report is not pending.\"\n        );\n        report.status = ReportStatus.Rejected;\n    }\n\n    function mintCredits(\n        address supplier,\n        uint256 reportIndex\n    ) public onlyRegulator {\n        ProjectReport storage report = projectReports[supplier][reportIndex];\n        require(\n            report.status == ReportStatus.Approved,\n            \"Report not approved by Auditor.\"\n        );\n        require(\n            report.status != ReportStatus.Minted,\n            \"Credits already minted.\"\n        );\n        report.status = ReportStatus.Minted;\n        emit CreditsMinted(supplier, report.creditAmount);\n}\n\nfunction supplierGetTokens(uint reportIndex) payable public onlySupplier {\n    ProjectReport storage report = projectReports[msg.sender][reportIndex];\n    uint requiredAmount = (report.creditAmount * 1 ether) / 100;\n    require(msg.value >= requiredAmount, \"Insufficient funds sent to buy token\");\n    balances[msg.sender] += report.creditAmount;\n}\n\nfunction filterReportsByStatus(\n        ReportStatus status\n    ) internal view returns (ProjectReport[] memory) {\n        uint256 count = 0;\n\n        for (uint256 i = 0; i < supplierAddresses.length; i++) {\n            ProjectReport[] memory reports = projectReports[\n                supplierAddresses[i]\n            ];\n            for (uint256 j = 0; j < reports.length; j++) {\n                if (reports[j].status == status) {\n                    count++;\n                }\n            }\n        }\n\n        ProjectReport[] memory filteredReports = new ProjectReport[](count);\n        uint256 index = 0;\n\n        for (uint256 i = 0; i < supplierAddresses.length; i++) {\n            address supplier = supplierAddresses[i];\n            ProjectReport[] memory reports = projectReports[supplier];\n            for (uint256 j = 0; j < reports.length; j++) {\n                if (reports[j].status == status) {\n                    filteredReports[index] = reports[j];\n                    index++;\n                }\n            }\n        }\n\n        return filteredReports;\n    }\n\n    function getApprovedReportsForSupplier()\n        public\n        view\n        onlySupplier\n        returns (ProjectReport[] memory)\n    {\n        return\n            filterReportsForSupplierByStatus(msg.sender, ReportStatus.Minted);\n    }\n\n    function getRejectedReportsForSupplier()\n        public\n        view\n        onlySupplier\n        returns (ProjectReport[] memory)\n    {\n        return\n            filterReportsForSupplierByStatus(msg.sender, ReportStatus.Minted);\n    }\n\n    function filterReportsForSupplierByStatus(\n        address supplier,\n        ReportStatus status\n    ) internal view returns (ProjectReport[] memory) {\n        uint256 count = 0;\n        ProjectReport[] memory reports = projectReports[supplier];\n\n        for (uint256 i = 0; i < reports.length; i++) {\n            if (reports[i].status == status) {\n                count++;\n            }\n        }\n\n        ProjectReport[] memory filteredReports = new ProjectReport[](count);\n        uint256 index = 0;\n\n        for (uint256 i = 0; i < reports.length; i++) {\n            if (reports[i].status == status) {\n                filteredReports[index] = reports[i];\n                index++;\n            }\n        }\n\n        return filteredReports;\n    }\n\n\n\n    function getSuppliers() public view returns (SupplierAddBalance[] memory) {\n        uint n = supplierAddresses.length;\n\n        SupplierAddBalance[] memory results = new SupplierAddBalance[](n);\n\n        for (uint i = 0; i < n; i++) {\n            results[i] = SupplierAddBalance(\n                supplierAddresses[i],\n                balances[supplierAddresses[i]]\n            );\n        }\n        return results; \n    }\n\n\n\n\n \n  function gettressurybalance() public view onlyAuditor onlyRegulator returns(uint){\n    return  address(this).balance/1 ether;\n  }\n   \n\n\n}\n/*full code*/",
  "sourcePath": "/Users/shaikmohammadkaif/Documents/capstone/backend/smartcontracts/contracts/CarbonCredits.sol",
  "compiler": {
    "name": "solc",
    "version": "0.8.0+commit.c7dfd78e.Emscripten.clang"
  },
  "schemaVersion": "3.4.16",
  "updatedAt": "2024-11-19T09:56:58.154Z",
  "networkType": "ethereum",
  "devdoc": {
    "kind": "dev",
    "methods": {
      "login()": {
        "details": "Login function to retrieve user details if registered."
      },
      "signup(string,string,uint8)": {
        "details": "Register a new user with a hashed NFT ID, name, email, and role."
      }
    },
    "version": 1
  },
  "userdoc": {
    "kind": "user",
    "methods": {},
    "version": 1
  }
}