{
  "contractName": "UserRegistry",
  "abi": [
    {
      "anonymous": false,
      "inputs": [
        {
          "indexed": true,
          "internalType": "address",
          "name": "user",
          "type": "address"
        },
        {
          "indexed": false,
          "internalType": "enum UserRegistry.Role",
          "name": "role",
          "type": "uint8"
        },
        {
          "indexed": false,
          "internalType": "bytes32",
          "name": "nftHash",
          "type": "bytes32"
        }
      ],
      "name": "UserSignedUp",
      "type": "event"
    },
    {
      "inputs": [],
      "name": "totalUsers",
      "outputs": [
        {
          "internalType": "uint256",
          "name": "",
          "type": "uint256"
        }
      ],
      "stateMutability": "view",
      "type": "function"
    },
    {
      "inputs": [
        {
          "internalType": "address",
          "name": "",
          "type": "address"
        }
      ],
      "name": "users",
      "outputs": [
        {
          "internalType": "string",
          "name": "name",
          "type": "string"
        },
        {
          "internalType": "string",
          "name": "email",
          "type": "string"
        },
        {
          "internalType": "enum UserRegistry.Role",
          "name": "role",
          "type": "uint8"
        },
        {
          "internalType": "bytes32",
          "name": "nftHash",
          "type": "bytes32"
        },
        {
          "internalType": "bool",
          "name": "registered",
          "type": "bool"
        }
      ],
      "stateMutability": "view",
      "type": "function"
    },
    {
      "inputs": [
        {
          "internalType": "string",
          "name": "_name",
          "type": "string"
        },
        {
          "internalType": "string",
          "name": "_email",
          "type": "string"
        },
        {
          "internalType": "enum UserRegistry.Role",
          "name": "_role",
          "type": "uint8"
        }
      ],
      "name": "signup",
      "outputs": [],
      "stateMutability": "nonpayable",
      "type": "function"
    },
    {
      "inputs": [],
      "name": "login",
      "outputs": [
        {
          "internalType": "string",
          "name": "name",
          "type": "string"
        },
        {
          "internalType": "enum UserRegistry.Role",
          "name": "role",
          "type": "uint8"
        },
        {
          "internalType": "bytes32",
          "name": "nftHash",
          "type": "bytes32"
        }
      ],
      "stateMutability": "view",
      "type": "function"
    }
  ],
  "bytecode": "0x608060405234801561001057600080fd5b50611039806100206000396000f3fe608060405234801561001057600080fd5b506004361061004c5760003560e01c8063411cee7d14610051578063a87430ba1461006d578063b34e97e8146100a1578063bff1f9e1146100c1575b600080fd5b61006b600480360381019061006691906109ad565b6100df565b005b61008760048036038101906100829190610984565b61041e565b604051610098959493929190610c33565b60405180910390f35b6100a961057e565b6040516100b893929190610bf5565b60405180910390f35b6100c9610849565b6040516100d69190610cf4565b60405180910390f35b6000803373ffffffffffffffffffffffffffffffffffffffff1673ffffffffffffffffffffffffffffffffffffffff16815260200190815260200160002060040160009054906101000a900460ff161561016e576040517f08c379a000000000000000000000000000000000000000000000000000000000815260040161016590610cb4565b60405180910390fd5b600060048111156101a8577f4e487b7100000000000000000000000000000000000000000000000000000000600052602160045260246000fd5b8160048111156101e1577f4e487b7100000000000000000000000000000000000000000000000000000000600052602160045260246000fd5b1415610222576040517f08c379a000000000000000000000000000000000000000000000000000000000815260040161021990610c94565b60405180910390fd5b6000334260015460405160200161023b93929190610b8f565b6040516020818303038152906040528051906020012090506040518060a001604052808581526020018481526020018360048111156102a3577f4e487b7100000000000000000000000000000000000000000000000000000000600052602160045260246000fd5b8152602001828152602001600115158152506000803373ffffffffffffffffffffffffffffffffffffffff1673ffffffffffffffffffffffffffffffffffffffff168152602001908152602001600020600082015181600001908051906020019061030f92919061084f565b50602082015181600101908051906020019061032c92919061084f565b5060408201518160020160006101000a81548160ff0219169083600481111561037e577f4e487b7100000000000000000000000000000000000000000000000000000000600052602160045260246000fd5b02179055506060820151816003015560808201518160040160006101000a81548160ff021916908315150217905550905050600160008154809291906103c390610e77565b91905055503373ffffffffffffffffffffffffffffffffffffffff167ff1ca5ac5ca77d73c20c0b604b3509c38a408493f1cb6095afa66bc8aa73a9ecf8383604051610410929190610bcc565b60405180910390a250505050565b600060205280600052604060002060009150905080600001805461044190610e45565b80601f016020809104026020016040519081016040528092919081815260200182805461046d90610e45565b80156104ba5780601f1061048f576101008083540402835291602001916104ba565b820191906000526020600020905b81548152906001019060200180831161049d57829003601f168201915b5050505050908060010180546104cf90610e45565b80601f01602080910402602001604051908101604052809291908181526020018280546104fb90610e45565b80156105485780601f1061051d57610100808354040283529160200191610548565b820191906000526020600020905b81548152906001019060200180831161052b57829003601f168201915b5050505050908060020160009054906101000a900460ff16908060030154908060040160009054906101000a900460ff16905085565b60606000806000803373ffffffffffffffffffffffffffffffffffffffff1673ffffffffffffffffffffffffffffffffffffffff16815260200190815260200160002060040160009054906101000a900460ff16610611576040517f08c379a000000000000000000000000000000000000000000000000000000000815260040161060890610cd4565b60405180910390fd5b60008060003373ffffffffffffffffffffffffffffffffffffffff1673ffffffffffffffffffffffffffffffffffffffff1681526020019081526020016000206040518060a001604052908160008201805461066c90610e45565b80601f016020809104026020016040519081016040528092919081815260200182805461069890610e45565b80156106e55780601f106106ba576101008083540402835291602001916106e5565b820191906000526020600020905b8154815290600101906020018083116106c857829003601f168201915b505050505081526020016001820180546106fe90610e45565b80601f016020809104026020016040519081016040528092919081815260200182805461072a90610e45565b80156107775780601f1061074c57610100808354040283529160200191610777565b820191906000526020600020905b81548152906001019060200180831161075a57829003601f168201915b505050505081526020016002820160009054906101000a900460ff1660048111156107cb577f4e487b7100000000000000000000000000000000000000000000000000000000600052602160045260246000fd5b6004811115610803577f4e487b7100000000000000000000000000000000000000000000000000000000600052602160045260246000fd5b8152602001600382015481526020016004820160009054906101000a900460ff161515151581525050905080600001518160400151826060015193509350935050909192565b60015481565b82805461085b90610e45565b90600052602060002090601f01602090048101928261087d57600085556108c4565b82601f1061089657805160ff19168380011785556108c4565b828001600101855582156108c4579182015b828111156108c35782518255916020019190600101906108a8565b5b5090506108d191906108d5565b5090565b5b808211156108ee5760008160009055506001016108d6565b5090565b600061090561090084610d40565b610d0f565b90508281526020810184848401111561091d57600080fd5b610928848285610e03565b509392505050565b60008135905061093f81610fdc565b92915050565b60008135905061095481610ff3565b92915050565b600082601f83011261096b57600080fd5b813561097b8482602086016108f2565b91505092915050565b60006020828403121561099657600080fd5b60006109a484828501610930565b91505092915050565b6000806000606084860312156109c257600080fd5b600084013567ffffffffffffffff8111156109dc57600080fd5b6109e88682870161095a565b935050602084013567ffffffffffffffff811115610a0557600080fd5b610a118682870161095a565b9250506040610a2286828701610945565b9150509250925092565b610a3d610a3882610d8c565b610ec0565b82525050565b610a4c81610d9e565b82525050565b610a5b81610daa565b82525050565b610a6a81610df1565b82525050565b6000610a7b82610d70565b610a858185610d7b565b9350610a95818560208601610e12565b610a9e81610faa565b840191505092915050565b6000610ab6600d83610d7b565b91507f496e76616c696420726f6c652e000000000000000000000000000000000000006000830152602082019050919050565b6000610af6601883610d7b565b91507f5573657220616c726561647920726567697374657265642e00000000000000006000830152602082019050919050565b6000610b36601483610d7b565b91507f55736572206e6f7420726567697374657265642e0000000000000000000000006000830152602082019050919050565b610b7281610de7565b82525050565b610b89610b8482610de7565b610ee4565b82525050565b6000610b9b8286610a2c565b601482019150610bab8285610b78565b602082019150610bbb8284610b78565b602082019150819050949350505050565b6000604082019050610be16000830185610a61565b610bee6020830184610a52565b9392505050565b60006060820190508181036000830152610c0f8186610a70565b9050610c1e6020830185610a61565b610c2b6040830184610a52565b949350505050565b600060a0820190508181036000830152610c4d8188610a70565b90508181036020830152610c618187610a70565b9050610c706040830186610a61565b610c7d6060830185610a52565b610c8a6080830184610a43565b9695505050505050565b60006020820190508181036000830152610cad81610aa9565b9050919050565b60006020820190508181036000830152610ccd81610ae9565b9050919050565b60006020820190508181036000830152610ced81610b29565b9050919050565b6000602082019050610d096000830184610b69565b92915050565b6000604051905081810181811067ffffffffffffffff82111715610d3657610d35610f7b565b5b8060405250919050565b600067ffffffffffffffff821115610d5b57610d5a610f7b565b5b601f19601f8301169050602081019050919050565b600081519050919050565b600082825260208201905092915050565b6000610d9782610dc7565b9050919050565b60008115159050919050565b6000819050919050565b6000819050610dc282610fc8565b919050565b600073ffffffffffffffffffffffffffffffffffffffff82169050919050565b6000819050919050565b6000610dfc82610db4565b9050919050565b82818337600083830152505050565b60005b83811015610e30578082015181840152602081019050610e15565b83811115610e3f576000848401525b50505050565b60006002820490506001821680610e5d57607f821691505b60208210811415610e7157610e70610f4c565b5b50919050565b6000610e8282610de7565b91507fffffffffffffffffffffffffffffffffffffffffffffffffffffffffffffffff821415610eb557610eb4610eee565b5b600182019050919050565b6000610ecb82610ed2565b9050919050565b6000610edd82610fbb565b9050919050565b6000819050919050565b7f4e487b7100000000000000000000000000000000000000000000000000000000600052601160045260246000fd5b7f4e487b7100000000000000000000000000000000000000000000000000000000600052602160045260246000fd5b7f4e487b7100000000000000000000000000000000000000000000000000000000600052602260045260246000fd5b7f4e487b7100000000000000000000000000000000000000000000000000000000600052604160045260246000fd5b6000601f19601f8301169050919050565b60008160601b9050919050565b60058110610fd957610fd8610f1d565b5b50565b610fe581610d8c565b8114610ff057600080fd5b50565b6005811061100057600080fd5b5056fea26469706673582212207d4927e91c5a50e08292fe05c11cd08ad1ea3000ca3ae4ab8986e7288b02436164736f6c63430008000033",
  "immutableReferences": {},
  "source": "// SPDX-License-Identifier: MIT\npragma solidity ^0.8.0;\n\ncontract UserRegistry {\n    // User roles available in the system\n    enum Role {\n        None,\n        Supplier,\n        Auditor,\n        Regulator,\n        Buyer\n    }\n\n    // Structure to store user information\n    struct User {\n        string name;\n        string email;\n        Role role;\n        bytes32 nftHash; // Hashed NFT ID (keccak256)\n        bool registered;\n    }\n\n    // Mapping to store registered users by their address\n    mapping(address => User) public users;\n    uint256 public totalUsers; // Track total number of registered users\n\n    // Event for successful signup\n    event UserSignedUp(address indexed user, Role role, bytes32 nftHash);\n\n    // Modifier to ensure only unregistered users can call signup\n    modifier onlyUnregistered() {\n        require(!users[msg.sender].registered, \"User already registered.\");\n        _;\n    }\n\n    /**\n     * @dev Register a new user with a hashed NFT ID, name, email, and role.\n     */\n    function signup(\n        string memory _name,\n        string memory _email,\n        Role _role\n    ) public onlyUnregistered {\n        require(_role != Role.None, \"Invalid role.\");\n\n        // Generate a unique NFT hash using keccak256\n        bytes32 nftHash = keccak256(\n            abi.encodePacked(msg.sender, block.timestamp, totalUsers)\n        );\n\n        // Store user details with hashed NFT ID\n        users[msg.sender] = User({\n            name: _name,\n            email: _email,\n            role: _role,\n            nftHash: nftHash,\n            registered: true\n        });\n\n        totalUsers++; // Increment total user count\n\n        emit UserSignedUp(msg.sender, _role, nftHash);\n    }\n\n    /**\n     * @dev Login function to retrieve user details if registered.\n     */\n    function login()\n        public\n        view\n        returns (string memory name, Role role, bytes32 nftHash)\n    {\n        require(users[msg.sender].registered, \"User not registered.\");\n        User memory user = users[msg.sender];\n        return (user.name, user.role, user.nftHash);\n    }\n}\n",
  "sourcePath": "/Users/shaikmohammadkaif/Documents/capstone/backend/smartcontracts/contracts/UserRegistry.sol",
  "compiler": {
    "name": "solc",
    "version": "0.8.0+commit.c7dfd78e.Emscripten.clang"
  },
  "schemaVersion": "3.4.16",
  "updatedAt": "2024-11-03T18:27:46.929Z",
  "devdoc": {
    "kind": "dev",
    "methods": {
      "login()": {
        "details": "Login function to retrieve user details if registered."
      },
      "signup(string,string,uint8)": {
        "details": "Register a new user with a hashed NFT ID, name, email, and role."
      }
    },
    "version": 1
  },
  "userdoc": {
    "kind": "user",
    "methods": {},
    "version": 1
  }
}